{
    "contractName": "NFT_Marketplace",
    "abi": [
        {
            "inputs": [],
            "stateMutability": "nonpayable",
            "type": "constructor"
        },
        {
            "anonymous": false,
            "inputs": [
                {
                    "indexed": true,
                    "internalType": "address",
                    "name": "owner",
                    "type": "address"
                },
                {
                    "indexed": true,
                    "internalType": "address",
                    "name": "approved",
                    "type": "address"
                },
                {
                    "indexed": true,
                    "internalType": "uint256",
                    "name": "tokenId",
                    "type": "uint256"
                }
            ],
            "name": "Approval",
            "type": "event"
        },
        {
            "anonymous": false,
            "inputs": [
                {
                    "indexed": true,
                    "internalType": "address",
                    "name": "owner",
                    "type": "address"
                },
                {
                    "indexed": true,
                    "internalType": "address",
                    "name": "operator",
                    "type": "address"
                },
                {
                    "indexed": false,
                    "internalType": "bool",
                    "name": "approved",
                    "type": "bool"
                }
            ],
            "name": "ApprovalForAll",
            "type": "event"
        },
        {
            "anonymous": false,
            "inputs": [
                {
                    "indexed": false,
                    "internalType": "uint256",
                    "name": "_fromTokenId",
                    "type": "uint256"
                },
                {
                    "indexed": false,
                    "internalType": "uint256",
                    "name": "_toTokenId",
                    "type": "uint256"
                }
            ],
            "name": "BatchMetadataUpdate",
            "type": "event"
        },
        {
            "anonymous": false,
            "inputs": [
                {
                    "indexed": false,
                    "internalType": "uint256",
                    "name": "_tokenId",
                    "type": "uint256"
                }
            ],
            "name": "MetadataUpdate",
            "type": "event"
        },
        {
            "anonymous": false,
            "inputs": [
                {
                    "indexed": true,
                    "internalType": "address",
                    "name": "from",
                    "type": "address"
                },
                {
                    "indexed": true,
                    "internalType": "address",
                    "name": "to",
                    "type": "address"
                },
                {
                    "indexed": true,
                    "internalType": "uint256",
                    "name": "tokenId",
                    "type": "uint256"
                }
            ],
            "name": "Transfer",
            "type": "event"
        },
        {
            "anonymous": false,
            "inputs": [
                {
                    "indexed": true,
                    "internalType": "uint256",
                    "name": "tokenId",
                    "type": "uint256"
                },
                {
                    "indexed": false,
                    "internalType": "address",
                    "name": "seller",
                    "type": "address"
                },
                {
                    "indexed": false,
                    "internalType": "address",
                    "name": "owner",
                    "type": "address"
                },
                {
                    "indexed": false,
                    "internalType": "uint256",
                    "name": "price",
                    "type": "uint256"
                },
                {
                    "indexed": false,
                    "internalType": "bool",
                    "name": "sold",
                    "type": "bool"
                }
            ],
            "name": "idMarketItemCreated",
            "type": "event"
        },
        {
            "inputs": [
                {
                    "internalType": "address",
                    "name": "to",
                    "type": "address"
                },
                {
                    "internalType": "uint256",
                    "name": "tokenId",
                    "type": "uint256"
                }
            ],
            "name": "approve",
            "outputs": [],
            "stateMutability": "nonpayable",
            "type": "function"
        },
        {
            "inputs": [
                {
                    "internalType": "address",
                    "name": "owner",
                    "type": "address"
                }
            ],
            "name": "balanceOf",
            "outputs": [
                {
                    "internalType": "uint256",
                    "name": "",
                    "type": "uint256"
                }
            ],
            "stateMutability": "view",
            "type": "function"
        },
        {
            "inputs": [
                {
                    "internalType": "uint256",
                    "name": "tokenId",
                    "type": "uint256"
                }
            ],
            "name": "createMarketSale",
            "outputs": [],
            "stateMutability": "payable",
            "type": "function"
        },
        {
            "inputs": [
                {
                    "internalType": "string",
                    "name": "tokenURI",
                    "type": "string"
                },
                {
                    "internalType": "uint256",
                    "name": "price",
                    "type": "uint256"
                }
            ],
            "name": "createToken",
            "outputs": [
                {
                    "internalType": "uint256",
                    "name": "",
                    "type": "uint256"
                }
            ],
            "stateMutability": "payable",
            "type": "function"
        },
        {
            "inputs": [],
            "name": "fetchItemsListed",
            "outputs": [
                {
                    "components": [
                        {
                            "internalType": "uint256",
                            "name": "tokenId",
                            "type": "uint256"
                        },
                        {
                            "internalType": "address payable",
                            "name": "seller",
                            "type": "address"
                        },
                        {
                            "internalType": "address payable",
                            "name": "owner",
                            "type": "address"
                        },
                        {
                            "internalType": "uint256",
                            "name": "price",
                            "type": "uint256"
                        },
                        {
                            "internalType": "bool",
                            "name": "sold",
                            "type": "bool"
                        }
                    ],
                    "internalType": "struct NFT_Marketplace.MarketItem[]",
                    "name": "",
                    "type": "tuple[]"
                }
            ],
            "stateMutability": "view",
            "type": "function"
        },
        {
            "inputs": [],
            "name": "fetchMarketItem",
            "outputs": [
                {
                    "components": [
                        {
                            "internalType": "uint256",
                            "name": "tokenId",
                            "type": "uint256"
                        },
                        {
                            "internalType": "address payable",
                            "name": "seller",
                            "type": "address"
                        },
                        {
                            "internalType": "address payable",
                            "name": "owner",
                            "type": "address"
                        },
                        {
                            "internalType": "uint256",
                            "name": "price",
                            "type": "uint256"
                        },
                        {
                            "internalType": "bool",
                            "name": "sold",
                            "type": "bool"
                        }
                    ],
                    "internalType": "struct NFT_Marketplace.MarketItem[]",
                    "name": "",
                    "type": "tuple[]"
                }
            ],
            "stateMutability": "view",
            "type": "function"
        },
        {
            "inputs": [],
            "name": "fetchMyNFT",
            "outputs": [
                {
                    "components": [
                        {
                            "internalType": "uint256",
                            "name": "tokenId",
                            "type": "uint256"
                        },
                        {
                            "internalType": "address payable",
                            "name": "seller",
                            "type": "address"
                        },
                        {
                            "internalType": "address payable",
                            "name": "owner",
                            "type": "address"
                        },
                        {
                            "internalType": "uint256",
                            "name": "price",
                            "type": "uint256"
                        },
                        {
                            "internalType": "bool",
                            "name": "sold",
                            "type": "bool"
                        }
                    ],
                    "internalType": "struct NFT_Marketplace.MarketItem[]",
                    "name": "",
                    "type": "tuple[]"
                }
            ],
            "stateMutability": "view",
            "type": "function"
        },
        {
            "inputs": [
                {
                    "internalType": "uint256",
                    "name": "tokenId",
                    "type": "uint256"
                }
            ],
            "name": "getAllOwners",
            "outputs": [
                {
                    "internalType": "address[]",
                    "name": "",
                    "type": "address[]"
                }
            ],
            "stateMutability": "view",
            "type": "function"
        },
        {
            "inputs": [
                {
                    "internalType": "uint256",
                    "name": "tokenId",
                    "type": "uint256"
                }
            ],
            "name": "getApproved",
            "outputs": [
                {
                    "internalType": "address",
                    "name": "",
                    "type": "address"
                }
            ],
            "stateMutability": "view",
            "type": "function"
        },
        {
            "inputs": [],
            "name": "getListingPrice",
            "outputs": [
                {
                    "internalType": "uint256",
                    "name": "",
                    "type": "uint256"
                }
            ],
            "stateMutability": "view",
            "type": "function"
        },
        {
            "inputs": [
                {
                    "internalType": "address",
                    "name": "owner",
                    "type": "address"
                },
                {
                    "internalType": "address",
                    "name": "operator",
                    "type": "address"
                }
            ],
            "name": "isApprovedForAll",
            "outputs": [
                {
                    "internalType": "bool",
                    "name": "",
                    "type": "bool"
                }
            ],
            "stateMutability": "view",
            "type": "function"
        },
        {
            "inputs": [],
            "name": "name",
            "outputs": [
                {
                    "internalType": "string",
                    "name": "",
                    "type": "string"
                }
            ],
            "stateMutability": "view",
            "type": "function"
        },
        {
            "inputs": [
                {
                    "internalType": "uint256",
                    "name": "tokenId",
                    "type": "uint256"
                }
            ],
            "name": "ownerOf",
            "outputs": [
                {
                    "internalType": "address",
                    "name": "",
                    "type": "address"
                }
            ],
            "stateMutability": "view",
            "type": "function"
        },
        {
            "inputs": [
                {
                    "internalType": "uint256",
                    "name": "tokenId",
                    "type": "uint256"
                },
                {
                    "internalType": "uint256",
                    "name": "price",
                    "type": "uint256"
                }
            ],
            "name": "reSellToken",
            "outputs": [],
            "stateMutability": "payable",
            "type": "function"
        },
        {
            "inputs": [
                {
                    "internalType": "address",
                    "name": "from",
                    "type": "address"
                },
                {
                    "internalType": "address",
                    "name": "to",
                    "type": "address"
                },
                {
                    "internalType": "uint256",
                    "name": "tokenId",
                    "type": "uint256"
                }
            ],
            "name": "safeTransferFrom",
            "outputs": [],
            "stateMutability": "nonpayable",
            "type": "function"
        },
        {
            "inputs": [
                {
                    "internalType": "address",
                    "name": "from",
                    "type": "address"
                },
                {
                    "internalType": "address",
                    "name": "to",
                    "type": "address"
                },
                {
                    "internalType": "uint256",
                    "name": "tokenId",
                    "type": "uint256"
                },
                {
                    "internalType": "bytes",
                    "name": "data",
                    "type": "bytes"
                }
            ],
            "name": "safeTransferFrom",
            "outputs": [],
            "stateMutability": "nonpayable",
            "type": "function"
        },
        {
            "inputs": [
                {
                    "internalType": "address",
                    "name": "operator",
                    "type": "address"
                },
                {
                    "internalType": "bool",
                    "name": "approved",
                    "type": "bool"
                }
            ],
            "name": "setApprovalForAll",
            "outputs": [],
            "stateMutability": "nonpayable",
            "type": "function"
        },
        {
            "inputs": [
                {
                    "internalType": "bytes4",
                    "name": "interfaceId",
                    "type": "bytes4"
                }
            ],
            "name": "supportsInterface",
            "outputs": [
                {
                    "internalType": "bool",
                    "name": "",
                    "type": "bool"
                }
            ],
            "stateMutability": "view",
            "type": "function"
        },
        {
            "inputs": [],
            "name": "symbol",
            "outputs": [
                {
                    "internalType": "string",
                    "name": "",
                    "type": "string"
                }
            ],
            "stateMutability": "view",
            "type": "function"
        },
        {
            "inputs": [
                {
                    "internalType": "uint256",
                    "name": "tokenId",
                    "type": "uint256"
                }
            ],
            "name": "tokenURI",
            "outputs": [
                {
                    "internalType": "string",
                    "name": "",
                    "type": "string"
                }
            ],
            "stateMutability": "view",
            "type": "function"
        },
        {
            "inputs": [
                {
                    "internalType": "address",
                    "name": "from",
                    "type": "address"
                },
                {
                    "internalType": "address",
                    "name": "to",
                    "type": "address"
                },
                {
                    "internalType": "uint256",
                    "name": "tokenId",
                    "type": "uint256"
                }
            ],
            "name": "transferFrom",
            "outputs": [],
            "stateMutability": "nonpayable",
            "type": "function"
        },
        {
            "inputs": [
                {
                    "internalType": "uint256",
                    "name": "_listingPrice",
                    "type": "uint256"
                }
            ],
            "name": "updateListingPrice",
            "outputs": [],
            "stateMutability": "payable",
            "type": "function"
        }
    ],
    "bytecode": "60806040526605543df729c0006009553480156200001c57600080fd5b506040518060400160405280601381526020017f4e4654204d657461766572736520546f6b656e0000000000000000000000000081525060405180604001604052806005815260200164135653919560da1b815250816000908162000082919062000140565b50600162000091828262000140565b506200020c915050565b634e487b7160e01b600052604160045260246000fd5b600181811c90821680620000c657607f821691505b602082108103620000e757634e487b7160e01b600052602260045260246000fd5b50919050565b601f8211156200013b57600081815260208120601f850160051c81016020861015620001165750805b601f850160051c820191505b81811015620001375782815560010162000122565b5050505b505050565b81516001600160401b038111156200015c576200015c6200009b565b62000174816200016d8454620000b1565b84620000ed565b602080601f831160018114620001ac5760008415620001935750858301515b600019600386901b1c1916600185901b17855562000137565b600085815260208120601f198616915b82811015620001dd57888601518255948401946001909101908401620001bc565b5085821015620001fc5787850151600019600388901b60f8161c191681555b5050505050600190811b01905550565b612477806200021c6000396000f3fe6080604052600436106101355760003560e01c806372b3b620116100ab578063ae677aa31161006f578063ae677aa314610349578063b88d4fde1461035c578063be9af5361461037c578063c18763f71461038f578063c87b56dd146103a4578063e985e9c5146103c457600080fd5b806372b3b620146102d957806385535b25146102ec5780638fafd021146102ff57806395d89b4114610314578063a22cb4651461032957600080fd5b806323b872dd116100fd57806323b872dd1461020a57806342842e0e1461022a57806345f8fa801461024a57806361253a041461026c5780636352211e1461029957806370a08231146102b957600080fd5b806301ffc9a71461013a57806306fdde031461016f578063081812fc14610191578063095ea7b3146101c957806312e85585146101eb575b600080fd5b34801561014657600080fd5b5061015a610155366004611cec565b61040d565b60405190151581526020015b60405180910390f35b34801561017b57600080fd5b50610184610438565b6040516101669190611d59565b34801561019d57600080fd5b506101b16101ac366004611d6c565b6104ca565b6040516001600160a01b039091168152602001610166565b3480156101d557600080fd5b506101e96101e4366004611da1565b6104f1565b005b3480156101f757600080fd5b506009545b604051908152602001610166565b34801561021657600080fd5b506101e9610225366004611dcb565b61060b565b34801561023657600080fd5b506101e9610245366004611dcb565b61063c565b34801561025657600080fd5b5061025f610657565b6040516101669190611e07565b34801561027857600080fd5b5061028c610287366004611d6c565b610834565b6040516101669190611e83565b3480156102a557600080fd5b506101b16102b4366004611d6c565b6108a0565b3480156102c557600080fd5b506101fc6102d4366004611ed0565b610900565b6101fc6102e7366004611f77565b610986565b6101e96102fa366004611fd0565b6109c8565b34801561030b57600080fd5b5061025f610ab1565b34801561032057600080fd5b50610184610c3f565b34801561033557600080fd5b506101e9610344366004611ff2565b610c4e565b6101e9610357366004611d6c565b610c59565b34801561036857600080fd5b506101e961037736600461202e565b610cc8565b6101e961038a366004611d6c565b610d00565b34801561039b57600080fd5b5061025f610eeb565b3480156103b057600080fd5b506101846103bf366004611d6c565b6110bf565b3480156103d057600080fd5b5061015a6103df3660046120aa565b6001600160a01b03918216600090815260056020908152604080832093909416825291909152205460ff1690565b60006001600160e01b03198216632483248360e11b14806104325750610432826111cf565b92915050565b606060008054610447906120dd565b80601f0160208091040260200160405190810160405280929190818152602001828054610473906120dd565b80156104c05780601f10610495576101008083540402835291602001916104c0565b820191906000526020600020905b8154815290600101906020018083116104a357829003601f168201915b5050505050905090565b60006104d58261121f565b506000908152600460205260409020546001600160a01b031690565b60006104fc826108a0565b9050806001600160a01b0316836001600160a01b03160361056e5760405162461bcd60e51b815260206004820152602160248201527f4552433732313a20617070726f76616c20746f2063757272656e74206f776e656044820152603960f91b60648201526084015b60405180910390fd5b336001600160a01b038216148061058a575061058a81336103df565b6105fc5760405162461bcd60e51b815260206004820152603d60248201527f4552433732313a20617070726f76652063616c6c6572206973206e6f7420746f60448201527f6b656e206f776e6572206f7220617070726f76656420666f7220616c6c0000006064820152608401610565565b6106068383611281565b505050565b61061533826112ef565b6106315760405162461bcd60e51b815260040161056590612117565b61060683838361136d565b61060683838360405180602001604052806000815250610cc8565b6060600061066460075490565b905060008060005b838110156106c65733600b600061068484600161217a565b81526020810191909152604001600020600101546001600160a01b0316036106b4576106b160018461217a565b92505b806106be8161218d565b91505061066c565b5060008267ffffffffffffffff8111156106e2576106e2611eeb565b60405190808252806020026020018201604052801561073b57816020015b6040805160a0810182526000808252602080830182905292820181905260608201819052608082015282526000199092019101816107005790505b50905060005b8481101561082b5733600b600061075984600161217a565b81526020810191909152604001600020600101546001600160a01b03160361081957600061078882600161217a565b6000818152600b6020908152604091829020825160a0810184528154815260018201546001600160a01b039081169382019390935260028201549092169282019290925260038201546060820152600482015460ff1615156080820152855192935090918590879081106107fe576107fe6121a6565b602090810291909101015261081460018661217a565b945050505b806108238161218d565b915050610741565b50949350505050565b6000818152600c602090815260409182902080548351818402810184019094528084526060939283018282801561089457602002820191906000526020600020905b81546001600160a01b03168152600190910190602001808311610876575b50505050509050919050565b6000818152600260205260408120546001600160a01b0316806104325760405162461bcd60e51b8152602060048201526018602482015277115490cdcc8c4e881a5b9d985b1a59081d1bdad95b88125160421b6044820152606401610565565b60006001600160a01b03821661096a5760405162461bcd60e51b815260206004820152602960248201527f4552433732313a2061646472657373207a65726f206973206e6f7420612076616044820152683634b21037bbb732b960b91b6064820152608401610565565b506001600160a01b031660009081526003602052604090205490565b6000610996600780546001019055565b60006109a160075490565b90506109ad33826114d1565b6109b7818561165c565b6109c18184611727565b9392505050565b6000828152600b60205260409020600201546001600160a01b03163314610a315760405162461bcd60e51b815260206004820152601860248201527f4f6e6c79206f776e65722063616e2073656c6c207468697300000000000000006044820152606401610565565b6009543414610a525760405162461bcd60e51b8152600401610565906121bc565b6000828152600b6020526040902060048101805460ff19169055600381018290556001810180546001600160a01b031990811633179091556002909101805490911630179055610aa2600861189f565b610aad33308461136d565b5050565b60606000610abe60075490565b90506000610acb60085490565b600754610ad89190612200565b90506000808267ffffffffffffffff811115610af657610af6611eeb565b604051908082528060200260200182016040528015610b4f57816020015b6040805160a081018252600080825260208083018290529282018190526060820181905260808201528252600019909201910181610b145790505b50905060005b8481101561082b5730600b6000610b6d84600161217a565b81526020810191909152604001600020600201546001600160a01b031603610c2d576000610b9c82600161217a565b6000818152600b6020908152604091829020825160a0810184528154815260018201546001600160a01b039081169382019390935260028201549092169282019290925260038201546060820152600482015460ff161515608082015285519293509091859087908110610c1257610c126121a6565b6020908102919091010152610c2860018661217a565b945050505b80610c378161218d565b915050610b55565b606060018054610447906120dd565b610aad3383836118f6565b600a546001600160a01b03163314610cc35760405162461bcd60e51b815260206004820152602760248201527f4f6e6c79206f776e65722063616e206368616e676520746865206c697374696e6044820152666720707269636560c81b6064820152608401610565565b600955565b610cd233836112ef565b610cee5760405162461bcd60e51b815260040161056590612117565b610cfa848484846119c4565b50505050565b6000818152600b602052604090206003015434811115610d945760405162461bcd60e51b815260206004820152604360248201527f506c65617365207375626d6974207468652061736b696e67207072696365206960448201527f6e206f7264657220746f20636f6d706c65746520746865207472616e7361637460648201526234b7b760e91b608482015260a401610565565b6000828152600b602052604090206002810180546001600160a01b03191633179055600401805460ff19166001179055610dd2600880546001019055565b6000828152600c602090815260408220805460018101825590835291200180546001600160a01b03191633908117909155610e0f9030908461136d565b600a546009546040516001600160a01b039092169181156108fc0291906000818181858888f19350505050158015610e4b573d6000803e3d6000fd5b506000610e588234612200565b90506000610e668234612200565b90508115610e9d57604051339083156108fc029084906000818181858888f19350505050158015610e9b573d6000803e3d6000fd5b505b6000848152600b60205260408082206001015490516001600160a01b039091169183156108fc02918491818181858888f19350505050158015610ee4573d6000803e3d6000fd5b5050505050565b60606000610ef860075490565b905060008060005b83811015610f5a5733600b6000610f1884600161217a565b81526020810191909152604001600020600201546001600160a01b031603610f4857610f4560018461217a565b92505b80610f528161218d565b915050610f00565b5060008267ffffffffffffffff811115610f7657610f76611eeb565b604051908082528060200260200182016040528015610fcf57816020015b6040805160a081018252600080825260208083018290529282018190526060820181905260808201528252600019909201910181610f945790505b50905060005b8481101561082b5733600b6000610fed84600161217a565b81526020810191909152604001600020600201546001600160a01b0316036110ad57600061101c82600161217a565b6000818152600b6020908152604091829020825160a0810184528154815260018201546001600160a01b039081169382019390935260028201549092169282019290925260038201546060820152600482015460ff161515608082015285519293509091859087908110611092576110926121a6565b60209081029190910101526110a860018661217a565b945050505b806110b78161218d565b915050610fd5565b60606110ca8261121f565b600082815260066020526040812080546110e3906120dd565b80601f016020809104026020016040519081016040528092919081815260200182805461110f906120dd565b801561115c5780601f106111315761010080835404028352916020019161115c565b820191906000526020600020905b81548152906001019060200180831161113f57829003601f168201915b50505050509050600061117a60408051602081019091526000815290565b9050805160000361118c575092915050565b8151156111be5780826040516020016111a6929190612213565b60405160208183030381529060405292505050919050565b6111c7846119f7565b949350505050565b60006001600160e01b031982166380ac58cd60e01b148061120057506001600160e01b03198216635b5e139f60e01b145b8061043257506301ffc9a760e01b6001600160e01b0319831614610432565b6000818152600260205260409020546001600160a01b031661127e5760405162461bcd60e51b8152602060048201526018602482015277115490cdcc8c4e881a5b9d985b1a59081d1bdad95b88125160421b6044820152606401610565565b50565b600081815260046020526040902080546001600160a01b0319166001600160a01b03841690811790915581906112b6826108a0565b6001600160a01b03167f8c5be1e5ebec7d5bd14f71427d1e84f3dd0314c0f7b2291e5b200ac8c7c3b92560405160405180910390a45050565b6000806112fb836108a0565b9050806001600160a01b0316846001600160a01b0316148061134257506001600160a01b0380821660009081526005602090815260408083209388168352929052205460ff165b806111c75750836001600160a01b031661135b846104ca565b6001600160a01b031614949350505050565b826001600160a01b0316611380826108a0565b6001600160a01b0316146113a65760405162461bcd60e51b815260040161056590612242565b6001600160a01b0382166114085760405162461bcd60e51b8152602060048201526024808201527f4552433732313a207472616e7366657220746f20746865207a65726f206164646044820152637265737360e01b6064820152608401610565565b826001600160a01b031661141b826108a0565b6001600160a01b0316146114415760405162461bcd60e51b815260040161056590612242565b600081815260046020908152604080832080546001600160a01b03199081169091556001600160a01b0387811680865260038552838620805460001901905590871680865283862080546001019055868652600290945282852080549092168417909155905184937fddf252ad1be2c89b69c2b068fc378daa952ba7f163c4a11628f55a4df523b3ef91a4505050565b6001600160a01b0382166115275760405162461bcd60e51b815260206004820181905260248201527f4552433732313a206d696e7420746f20746865207a65726f20616464726573736044820152606401610565565b6000818152600260205260409020546001600160a01b03161561158c5760405162461bcd60e51b815260206004820152601c60248201527f4552433732313a20746f6b656e20616c7265616479206d696e746564000000006044820152606401610565565b6000818152600260205260409020546001600160a01b0316156115f15760405162461bcd60e51b815260206004820152601c60248201527f4552433732313a20746f6b656e20616c7265616479206d696e746564000000006044820152606401610565565b6001600160a01b038216600081815260036020908152604080832080546001019055848352600290915280822080546001600160a01b0319168417905551839291907fddf252ad1be2c89b69c2b068fc378daa952ba7f163c4a11628f55a4df523b3ef908290a45050565b6000828152600260205260409020546001600160a01b03166116d75760405162461bcd60e51b815260206004820152602e60248201527f45524337323155524953746f726167653a2055524920736574206f66206e6f6e60448201526d32bc34b9ba32b73a103a37b5b2b760911b6064820152608401610565565b60008281526006602052604090206116ef82826122d5565b506040518281527ff8e1a15aba9398e019f0b49df1a4fde98ee17ae345cb5f6b5e2c27f5033e8ce79060200160405180910390a15050565b600081116117775760405162461bcd60e51b815260206004820152601860248201527f5072696365206d757374206265206174206c65617374203100000000000000006044820152606401610565565b60095434146117985760405162461bcd60e51b8152600401610565906121bc565b6040805160a08101825283815233602080830182815230848601818152606086018881526000608088018181528b8252600b87528982209851895594516001808a0180546001600160a01b03199081166001600160a01b0394851617909155945160028b018054871691909316179091559151600389015593516004909701805460ff191697151597909717909655600c84529582208054958601815582529190209092018054909316811790925561185291908461136d565b604080513381523060208201529081018290526000606082015282907fdebdb32cb5230ab727c9c361b16fdb2015df225c10e6a3e7f60ecd5dc5be45169060800160405180910390a25050565b8054806118ee5760405162461bcd60e51b815260206004820152601b60248201527f436f756e7465723a2064656372656d656e74206f766572666c6f7700000000006044820152606401610565565b600019019055565b816001600160a01b0316836001600160a01b0316036119575760405162461bcd60e51b815260206004820152601960248201527f4552433732313a20617070726f766520746f2063616c6c6572000000000000006044820152606401610565565b6001600160a01b03838116600081815260056020908152604080832094871680845294825291829020805460ff191686151590811790915591519182527f17307eab39ab6107e8899845ad3d59bd9653f200f220920489ca2b5937696c31910160405180910390a3505050565b6119cf84848461136d565b6119db84848484611a6a565b610cfa5760405162461bcd60e51b815260040161056590612395565b6060611a028261121f565b6000611a1960408051602081019091526000815290565b90506000815111611a3957604051806020016040528060008152506109c1565b80611a4384611b6b565b604051602001611a54929190612213565b6040516020818303038152906040529392505050565b60006001600160a01b0384163b15611b6057604051630a85bd0160e11b81526001600160a01b0385169063150b7a0290611aae9033908990889088906004016123e7565b6020604051808303816000875af1925050508015611ae9575060408051601f3d908101601f19168201909252611ae691810190612424565b60015b611b46573d808015611b17576040519150601f19603f3d011682016040523d82523d6000602084013e611b1c565b606091505b508051600003611b3e5760405162461bcd60e51b815260040161056590612395565b805181602001fd5b6001600160e01b031916630a85bd0160e11b1490506111c7565b506001949350505050565b60606000611b7883611bfe565b600101905060008167ffffffffffffffff811115611b9857611b98611eeb565b6040519080825280601f01601f191660200182016040528015611bc2576020820181803683370190505b5090508181016020015b600019016f181899199a1a9b1b9c1cb0b131b232b360811b600a86061a8153600a8504945084611bcc57509392505050565b60008072184f03e93ff9f4daa797ed6e38ed64bf6a1f0160401b8310611c3d5772184f03e93ff9f4daa797ed6e38ed64bf6a1f0160401b830492506040015b6d04ee2d6d415b85acef81000000008310611c69576d04ee2d6d415b85acef8100000000830492506020015b662386f26fc100008310611c8757662386f26fc10000830492506010015b6305f5e1008310611c9f576305f5e100830492506008015b6127108310611cb357612710830492506004015b60648310611cc5576064830492506002015b600a83106104325760010192915050565b6001600160e01b03198116811461127e57600080fd5b600060208284031215611cfe57600080fd5b81356109c181611cd6565b60005b83811015611d24578181015183820152602001611d0c565b50506000910152565b60008151808452611d45816020860160208601611d09565b601f01601f19169290920160200192915050565b6020815260006109c16020830184611d2d565b600060208284031215611d7e57600080fd5b5035919050565b80356001600160a01b0381168114611d9c57600080fd5b919050565b60008060408385031215611db457600080fd5b611dbd83611d85565b946020939093013593505050565b600080600060608486031215611de057600080fd5b611de984611d85565b9250611df760208501611d85565b9150604084013590509250925092565b602080825282518282018190526000919060409081850190868401855b82811015611e7657815180518552868101516001600160a01b03908116888701528682015116868601526060808201519086015260809081015115159085015260a09093019290850190600101611e24565b5091979650505050505050565b6020808252825182820181905260009190848201906040850190845b81811015611ec45783516001600160a01b031683529284019291840191600101611e9f565b50909695505050505050565b600060208284031215611ee257600080fd5b6109c182611d85565b634e487b7160e01b600052604160045260246000fd5b600067ffffffffffffffff80841115611f1c57611f1c611eeb565b604051601f8501601f19908116603f01168101908282118183101715611f4457611f44611eeb565b81604052809350858152868686011115611f5d57600080fd5b858560208301376000602087830101525050509392505050565b60008060408385031215611f8a57600080fd5b823567ffffffffffffffff811115611fa157600080fd5b8301601f81018513611fb257600080fd5b611fc185823560208401611f01565b95602094909401359450505050565b60008060408385031215611fe357600080fd5b50508035926020909101359150565b6000806040838503121561200557600080fd5b61200e83611d85565b91506020830135801515811461202357600080fd5b809150509250929050565b6000806000806080858703121561204457600080fd5b61204d85611d85565b935061205b60208601611d85565b925060408501359150606085013567ffffffffffffffff81111561207e57600080fd5b8501601f8101871361208f57600080fd5b61209e87823560208401611f01565b91505092959194509250565b600080604083850312156120bd57600080fd5b6120c683611d85565b91506120d460208401611d85565b90509250929050565b600181811c908216806120f157607f821691505b60208210810361211157634e487b7160e01b600052602260045260246000fd5b50919050565b6020808252602d908201527f4552433732313a2063616c6c6572206973206e6f7420746f6b656e206f776e6560408201526c1c881bdc88185c1c1c9bdd9959609a1b606082015260800190565b634e487b7160e01b600052601160045260246000fd5b8082018082111561043257610432612164565b60006001820161219f5761219f612164565b5060010190565b634e487b7160e01b600052603260045260246000fd5b60208082526024908201527f5072696365206d75737420626520657175616c20746f206c697374696e6720706040820152637269636560e01b606082015260800190565b8181038181111561043257610432612164565b60008351612225818460208801611d09565b835190830190612239818360208801611d09565b01949350505050565b60208082526025908201527f4552433732313a207472616e736665722066726f6d20696e636f72726563742060408201526437bbb732b960d91b606082015260800190565b601f82111561060657600081815260208120601f850160051c810160208610156122ae5750805b601f850160051c820191505b818110156122cd578281556001016122ba565b505050505050565b815167ffffffffffffffff8111156122ef576122ef611eeb565b612303816122fd84546120dd565b84612287565b602080601f83116001811461233857600084156123205750858301515b600019600386901b1c1916600185901b1785556122cd565b600085815260208120601f198616915b8281101561236757888601518255948401946001909101908401612348565b50858210156123855787850151600019600388901b60f8161c191681555b5050505050600190811b01905550565b60208082526032908201527f4552433732313a207472616e7366657220746f206e6f6e20455243373231526560408201527131b2b4bb32b91034b6b83632b6b2b73a32b960711b606082015260800190565b6001600160a01b038581168252841660208201526040810183905260806060820181905260009061241a90830184611d2d565b9695505050505050565b60006020828403121561243657600080fd5b81516109c181611cd656fea26469706673582212203131670b18f53f6330928c1a9626494a07593ddc262305f135703dde762461cc64736f6c63430008130033",
    "sourcePath": "f:/Blockchain/Final_Year_Project/NFT_Marketplace_Smart_Contract/contracts/NFT_Marketplace.sol",
    "compiler": {
        "name": "solc",
        "version": "0.8.19+commit.7dd6d404"
    },
    "functionHashes": {
        "approve(address,uint256)": "095ea7b3",
        "balanceOf(address)": "70a08231",
        "createMarketSale(uint256)": "be9af536",
        "createToken(string,uint256)": "72b3b620",
        "fetchItemsListed()": "45f8fa80",
        "fetchMarketItem()": "8fafd021",
        "fetchMyNFT()": "c18763f7",
        "getAllOwners(uint256)": "61253a04",
        "getApproved(uint256)": "081812fc",
        "getListingPrice()": "12e85585",
        "isApprovedForAll(address,address)": "e985e9c5",
        "name()": "06fdde03",
        "ownerOf(uint256)": "6352211e",
        "reSellToken(uint256,uint256)": "85535b25",
        "safeTransferFrom(address,address,uint256)": "42842e0e",
        "safeTransferFrom(address,address,uint256,bytes)": "b88d4fde",
        "setApprovalForAll(address,bool)": "a22cb465",
        "supportsInterface(bytes4)": "01ffc9a7",
        "symbol()": "95d89b41",
        "tokenURI(uint256)": "c87b56dd",
        "transferFrom(address,address,uint256)": "23b872dd",
        "updateListingPrice(uint256)": "ae677aa3"
    },
    "gasEstimates": {
        "creation": {
            "codeDepositCost": "1867000",
            "executionCost": "infinite",
            "totalCost": "infinite"
        },
        "external": {
            "approve(address,uint256)": "infinite",
            "balanceOf(address)": "2722",
            "createMarketSale(uint256)": "infinite",
            "createToken(string,uint256)": "infinite",
            "fetchItemsListed()": "infinite",
            "fetchMarketItem()": "infinite",
            "fetchMyNFT()": "infinite",
            "getAllOwners(uint256)": "infinite",
            "getApproved(uint256)": "4792",
            "getListingPrice()": "2393",
            "isApprovedForAll(address,address)": "infinite",
            "name()": "infinite",
            "ownerOf(uint256)": "2649",
            "reSellToken(uint256,uint256)": "infinite",
            "safeTransferFrom(address,address,uint256)": "infinite",
            "safeTransferFrom(address,address,uint256,bytes)": "infinite",
            "setApprovalForAll(address,bool)": "26794",
            "supportsInterface(bytes4)": "infinite",
            "symbol()": "infinite",
            "tokenURI(uint256)": "infinite",
            "transferFrom(address,address,uint256)": "infinite",
            "updateListingPrice(uint256)": "24462"
        },
        "internal": {
            "createMarketItem(uint256,uint256)": "infinite"
        }
    }
}