{
  "_format": "hh-sol-artifact-1",
  "contractName": "NFT_Marketplace",
  "sourceName": "contracts/NFT_Marketplace.sol",
  "abi": [
    {
      "anonymous": false,
      "inputs": [
        {
          "indexed": true,
          "internalType": "address",
          "name": "owner",
          "type": "address"
        },
        {
          "indexed": true,
          "internalType": "address",
          "name": "approved",
          "type": "address"
        },
        {
          "indexed": true,
          "internalType": "uint256",
          "name": "tokenId",
          "type": "uint256"
        }
      ],
      "name": "Approval",
      "type": "event"
    },
    {
      "anonymous": false,
      "inputs": [
        {
          "indexed": true,
          "internalType": "address",
          "name": "owner",
          "type": "address"
        },
        {
          "indexed": true,
          "internalType": "address",
          "name": "operator",
          "type": "address"
        },
        {
          "indexed": false,
          "internalType": "bool",
          "name": "approved",
          "type": "bool"
        }
      ],
      "name": "ApprovalForAll",
      "type": "event"
    },
    {
      "anonymous": false,
      "inputs": [
        {
          "indexed": false,
          "internalType": "uint256",
          "name": "_fromTokenId",
          "type": "uint256"
        },
        {
          "indexed": false,
          "internalType": "uint256",
          "name": "_toTokenId",
          "type": "uint256"
        }
      ],
      "name": "BatchMetadataUpdate",
      "type": "event"
    },
    {
      "anonymous": false,
      "inputs": [
        {
          "indexed": false,
          "internalType": "uint8",
          "name": "version",
          "type": "uint8"
        }
      ],
      "name": "Initialized",
      "type": "event"
    },
    {
      "anonymous": false,
      "inputs": [
        {
          "indexed": false,
          "internalType": "uint256",
          "name": "_tokenId",
          "type": "uint256"
        }
      ],
      "name": "MetadataUpdate",
      "type": "event"
    },
    {
      "anonymous": false,
      "inputs": [
        {
          "indexed": true,
          "internalType": "address",
          "name": "from",
          "type": "address"
        },
        {
          "indexed": true,
          "internalType": "address",
          "name": "to",
          "type": "address"
        },
        {
          "indexed": true,
          "internalType": "uint256",
          "name": "tokenId",
          "type": "uint256"
        }
      ],
      "name": "Transfer",
      "type": "event"
    },
    {
      "inputs": [
        {
          "internalType": "uint256",
          "name": "tokenId",
          "type": "uint256"
        }
      ],
      "name": "EndAuc",
      "outputs": [],
      "stateMutability": "nonpayable",
      "type": "function"
    },
    {
      "inputs": [],
      "name": "_itemsSold",
      "outputs": [
        {
          "internalType": "uint256",
          "name": "",
          "type": "uint256"
        }
      ],
      "stateMutability": "view",
      "type": "function"
    },
    {
      "inputs": [],
      "name": "_tokenIds",
      "outputs": [
        {
          "internalType": "uint256",
          "name": "",
          "type": "uint256"
        }
      ],
      "stateMutability": "view",
      "type": "function"
    },
    {
      "inputs": [
        {
          "internalType": "uint256",
          "name": "",
          "type": "uint256"
        }
      ],
      "name": "actualEnd",
      "outputs": [
        {
          "internalType": "string",
          "name": "",
          "type": "string"
        }
      ],
      "stateMutability": "view",
      "type": "function"
    },
    {
      "inputs": [
        {
          "internalType": "address",
          "name": "to",
          "type": "address"
        },
        {
          "internalType": "uint256",
          "name": "tokenId",
          "type": "uint256"
        }
      ],
      "name": "approve",
      "outputs": [],
      "stateMutability": "nonpayable",
      "type": "function"
    },
    {
      "inputs": [
        {
          "internalType": "address",
          "name": "owner",
          "type": "address"
        }
      ],
      "name": "balanceOf",
      "outputs": [
        {
          "internalType": "uint256",
          "name": "",
          "type": "uint256"
        }
      ],
      "stateMutability": "view",
      "type": "function"
    },
    {
      "inputs": [],
      "name": "bidInc",
      "outputs": [
        {
          "internalType": "uint256",
          "name": "",
          "type": "uint256"
        }
      ],
      "stateMutability": "view",
      "type": "function"
    },
    {
      "inputs": [
        {
          "internalType": "uint256",
          "name": "",
          "type": "uint256"
        },
        {
          "internalType": "address",
          "name": "",
          "type": "address"
        }
      ],
      "name": "bids",
      "outputs": [
        {
          "internalType": "uint256",
          "name": "",
          "type": "uint256"
        }
      ],
      "stateMutability": "view",
      "type": "function"
    },
    {
      "inputs": [
        {
          "internalType": "uint256",
          "name": "tokenId",
          "type": "uint256"
        },
        {
          "internalType": "address payable",
          "name": "newOwner",
          "type": "address"
        }
      ],
      "name": "buyNFT",
      "outputs": [],
      "stateMutability": "nonpayable",
      "type": "function"
    },
    {
      "inputs": [
        {
          "internalType": "uint256",
          "name": "tokenId",
          "type": "uint256"
        }
      ],
      "name": "createMarketSale",
      "outputs": [],
      "stateMutability": "payable",
      "type": "function"
    },
    {
      "inputs": [
        {
          "internalType": "string",
          "name": "tokenURI",
          "type": "string"
        },
        {
          "internalType": "uint256",
          "name": "price",
          "type": "uint256"
        },
        {
          "internalType": "string",
          "name": "aboutNFT",
          "type": "string"
        }
      ],
      "name": "createToken",
      "outputs": [
        {
          "internalType": "uint256",
          "name": "",
          "type": "uint256"
        }
      ],
      "stateMutability": "payable",
      "type": "function"
    },
    {
      "inputs": [],
      "name": "fetchMarketItem",
      "outputs": [
        {
          "components": [
            {
              "internalType": "uint256",
              "name": "tokenId",
              "type": "uint256"
            },
            {
              "internalType": "address payable",
              "name": "seller",
              "type": "address"
            },
            {
              "internalType": "address payable",
              "name": "owner",
              "type": "address"
            },
            {
              "internalType": "uint256",
              "name": "price",
              "type": "uint256"
            },
            {
              "internalType": "bool",
              "name": "sold",
              "type": "bool"
            },
            {
              "internalType": "string",
              "name": "link",
              "type": "string"
            },
            {
              "internalType": "string",
              "name": "about",
              "type": "string"
            },
            {
              "internalType": "bool",
              "name": "auctionState",
              "type": "bool"
            },
            {
              "internalType": "uint256",
              "name": "endTime",
              "type": "uint256"
            },
            {
              "internalType": "address payable",
              "name": "highestBiddder",
              "type": "address"
            },
            {
              "internalType": "uint256",
              "name": "highestPayableBid",
              "type": "uint256"
            },
            {
              "internalType": "uint256",
              "name": "bidCount",
              "type": "uint256"
            }
          ],
          "internalType": "struct NFT_Marketplace.MarketItem[]",
          "name": "",
          "type": "tuple[]"
        }
      ],
      "stateMutability": "view",
      "type": "function"
    },
    {
      "inputs": [],
      "name": "fetchMyNFT",
      "outputs": [
        {
          "components": [
            {
              "internalType": "uint256",
              "name": "tokenId",
              "type": "uint256"
            },
            {
              "internalType": "address payable",
              "name": "seller",
              "type": "address"
            },
            {
              "internalType": "address payable",
              "name": "owner",
              "type": "address"
            },
            {
              "internalType": "uint256",
              "name": "price",
              "type": "uint256"
            },
            {
              "internalType": "bool",
              "name": "sold",
              "type": "bool"
            },
            {
              "internalType": "string",
              "name": "link",
              "type": "string"
            },
            {
              "internalType": "string",
              "name": "about",
              "type": "string"
            },
            {
              "internalType": "bool",
              "name": "auctionState",
              "type": "bool"
            },
            {
              "internalType": "uint256",
              "name": "endTime",
              "type": "uint256"
            },
            {
              "internalType": "address payable",
              "name": "highestBiddder",
              "type": "address"
            },
            {
              "internalType": "uint256",
              "name": "highestPayableBid",
              "type": "uint256"
            },
            {
              "internalType": "uint256",
              "name": "bidCount",
              "type": "uint256"
            }
          ],
          "internalType": "struct NFT_Marketplace.MarketItem[]",
          "name": "",
          "type": "tuple[]"
        }
      ],
      "stateMutability": "view",
      "type": "function"
    },
    {
      "inputs": [
        {
          "internalType": "uint256",
          "name": "tokenId",
          "type": "uint256"
        }
      ],
      "name": "getApproved",
      "outputs": [
        {
          "internalType": "address",
          "name": "",
          "type": "address"
        }
      ],
      "stateMutability": "view",
      "type": "function"
    },
    {
      "inputs": [
        {
          "internalType": "address",
          "name": "visitor",
          "type": "address"
        }
      ],
      "name": "getMaxNFTData",
      "outputs": [
        {
          "internalType": "string",
          "name": "",
          "type": "string"
        }
      ],
      "stateMutability": "view",
      "type": "function"
    },
    {
      "inputs": [
        {
          "internalType": "uint256",
          "name": "",
          "type": "uint256"
        }
      ],
      "name": "idMarketItem",
      "outputs": [
        {
          "internalType": "uint256",
          "name": "tokenId",
          "type": "uint256"
        },
        {
          "internalType": "address payable",
          "name": "seller",
          "type": "address"
        },
        {
          "internalType": "address payable",
          "name": "owner",
          "type": "address"
        },
        {
          "internalType": "uint256",
          "name": "price",
          "type": "uint256"
        },
        {
          "internalType": "bool",
          "name": "sold",
          "type": "bool"
        },
        {
          "internalType": "string",
          "name": "link",
          "type": "string"
        },
        {
          "internalType": "string",
          "name": "about",
          "type": "string"
        },
        {
          "internalType": "bool",
          "name": "auctionState",
          "type": "bool"
        },
        {
          "internalType": "uint256",
          "name": "endTime",
          "type": "uint256"
        },
        {
          "internalType": "address payable",
          "name": "highestBiddder",
          "type": "address"
        },
        {
          "internalType": "uint256",
          "name": "highestPayableBid",
          "type": "uint256"
        },
        {
          "internalType": "uint256",
          "name": "bidCount",
          "type": "uint256"
        }
      ],
      "stateMutability": "view",
      "type": "function"
    },
    {
      "inputs": [
        {
          "internalType": "uint256",
          "name": "listPrice",
          "type": "uint256"
        }
      ],
      "name": "initialize",
      "outputs": [],
      "stateMutability": "nonpayable",
      "type": "function"
    },
    {
      "inputs": [
        {
          "internalType": "address",
          "name": "owner",
          "type": "address"
        },
        {
          "internalType": "address",
          "name": "operator",
          "type": "address"
        }
      ],
      "name": "isApprovedForAll",
      "outputs": [
        {
          "internalType": "bool",
          "name": "",
          "type": "bool"
        }
      ],
      "stateMutability": "view",
      "type": "function"
    },
    {
      "inputs": [],
      "name": "name",
      "outputs": [
        {
          "internalType": "string",
          "name": "",
          "type": "string"
        }
      ],
      "stateMutability": "view",
      "type": "function"
    },
    {
      "inputs": [
        {
          "internalType": "uint256",
          "name": "tokenId",
          "type": "uint256"
        }
      ],
      "name": "ownerOf",
      "outputs": [
        {
          "internalType": "address",
          "name": "",
          "type": "address"
        }
      ],
      "stateMutability": "view",
      "type": "function"
    },
    {
      "inputs": [
        {
          "internalType": "uint256",
          "name": "tokenId",
          "type": "uint256"
        }
      ],
      "name": "placeBid",
      "outputs": [],
      "stateMutability": "payable",
      "type": "function"
    },
    {
      "inputs": [
        {
          "internalType": "uint256",
          "name": "tokenId",
          "type": "uint256"
        },
        {
          "internalType": "uint256",
          "name": "price",
          "type": "uint256"
        }
      ],
      "name": "reSellToken",
      "outputs": [],
      "stateMutability": "payable",
      "type": "function"
    },
    {
      "inputs": [
        {
          "internalType": "address",
          "name": "",
          "type": "address"
        },
        {
          "internalType": "string",
          "name": "",
          "type": "string"
        }
      ],
      "name": "recomendation",
      "outputs": [
        {
          "internalType": "uint256",
          "name": "",
          "type": "uint256"
        }
      ],
      "stateMutability": "view",
      "type": "function"
    },
    {
      "inputs": [
        {
          "internalType": "address",
          "name": "from",
          "type": "address"
        },
        {
          "internalType": "address",
          "name": "to",
          "type": "address"
        },
        {
          "internalType": "uint256",
          "name": "tokenId",
          "type": "uint256"
        }
      ],
      "name": "safeTransferFrom",
      "outputs": [],
      "stateMutability": "nonpayable",
      "type": "function"
    },
    {
      "inputs": [
        {
          "internalType": "address",
          "name": "from",
          "type": "address"
        },
        {
          "internalType": "address",
          "name": "to",
          "type": "address"
        },
        {
          "internalType": "uint256",
          "name": "tokenId",
          "type": "uint256"
        },
        {
          "internalType": "bytes",
          "name": "data",
          "type": "bytes"
        }
      ],
      "name": "safeTransferFrom",
      "outputs": [],
      "stateMutability": "nonpayable",
      "type": "function"
    },
    {
      "inputs": [
        {
          "internalType": "address",
          "name": "operator",
          "type": "address"
        },
        {
          "internalType": "bool",
          "name": "approved",
          "type": "bool"
        }
      ],
      "name": "setApprovalForAll",
      "outputs": [],
      "stateMutability": "nonpayable",
      "type": "function"
    },
    {
      "inputs": [
        {
          "internalType": "uint256",
          "name": "tokenId",
          "type": "uint256"
        },
        {
          "internalType": "string",
          "name": "endTime",
          "type": "string"
        }
      ],
      "name": "startAuction",
      "outputs": [],
      "stateMutability": "nonpayable",
      "type": "function"
    },
    {
      "inputs": [
        {
          "internalType": "bytes4",
          "name": "interfaceId",
          "type": "bytes4"
        }
      ],
      "name": "supportsInterface",
      "outputs": [
        {
          "internalType": "bool",
          "name": "",
          "type": "bool"
        }
      ],
      "stateMutability": "view",
      "type": "function"
    },
    {
      "inputs": [],
      "name": "symbol",
      "outputs": [
        {
          "internalType": "string",
          "name": "",
          "type": "string"
        }
      ],
      "stateMutability": "view",
      "type": "function"
    },
    {
      "inputs": [
        {
          "internalType": "uint256",
          "name": "tokenId",
          "type": "uint256"
        }
      ],
      "name": "tokenURI",
      "outputs": [
        {
          "internalType": "string",
          "name": "",
          "type": "string"
        }
      ],
      "stateMutability": "view",
      "type": "function"
    },
    {
      "inputs": [
        {
          "internalType": "address",
          "name": "from",
          "type": "address"
        },
        {
          "internalType": "address",
          "name": "to",
          "type": "address"
        },
        {
          "internalType": "uint256",
          "name": "tokenId",
          "type": "uint256"
        }
      ],
      "name": "transferFrom",
      "outputs": [],
      "stateMutability": "nonpayable",
      "type": "function"
    }
  ],
  "bytecode": "0x608060405234801561001057600080fd5b50615d6580620000216000396000f3fe6080604052600436106101d85760003560e01c80638fafd02111610102578063c6c9b5b111610095578063e985e9c511610064578063e985e9c5146106dd578063eb3fc92e1461071a578063f474a80214610743578063fe4b84df14610780576101d8565b8063c6c9b5b11461060a578063c87b56dd1461063a578063d8db47a714610677578063da0e15b8146106a0576101d8565b8063aa46a400116100d1578063aa46a4001461056f578063b88d4fde1461059a578063be9af536146105c3578063c18763f7146105df576101d8565b80638fafd021146104d457806395d89b41146104ff5780639979ef451461052a578063a22cb46514610546576101d8565b80633f1ffcec1161017a5780637bb8e8bc116101495780637bb8e8bc1461042757806385535b251461045057806387506a0d1461046c57806388a8001214610497576101d8565b80633f1ffcec1461034757806342842e0e146103845780636352211e146103ad57806370a08231146103ea576101d8565b8063087ae8a2116101b6578063087ae8a214610282578063095ea7b3146102ca57806315b24677146102f357806323b872dd1461031e576101d8565b806301ffc9a7146101dd57806306fdde031461021a578063081812fc14610245575b600080fd5b3480156101e957600080fd5b5061020460048036038101906101ff91906145f8565b6107a9565b6040516102119190614640565b60405180910390f35b34801561022657600080fd5b5061022f61080a565b60405161023c91906146f4565b60405180910390f35b34801561025157600080fd5b5061026c6004803603810190610267919061474c565b61089c565b60405161027991906147ba565b60405180910390f35b34801561028e57600080fd5b506102a960048036038101906102a4919061474c565b6108e2565b6040516102c19c9b9a99989796959493929190614805565b60405180910390f35b3480156102d657600080fd5b506102f160048036038101906102ec91906148f9565b610acc565b005b3480156102ff57600080fd5b50610308610be4565b6040516103159190614939565b60405180910390f35b34801561032a57600080fd5b5061034560048036038101906103409190614954565b610bea565b005b34801561035357600080fd5b5061036e600480360381019061036991906149a7565b610c4a565b60405161037b9190614939565b60405180910390f35b34801561039057600080fd5b506103ab60048036038101906103a69190614954565b610c6f565b005b3480156103b957600080fd5b506103d460048036038101906103cf919061474c565b610c8f565b6040516103e191906147ba565b60405180910390f35b3480156103f657600080fd5b50610411600480360381019061040c91906149e7565b610d16565b60405161041e9190614939565b60405180910390f35b34801561043357600080fd5b5061044e60048036038101906104499190614b49565b610dce565b005b61046a60048036038101906104659190614ba5565b610eeb565b005b34801561047857600080fd5b50610481611141565b60405161048e9190614939565b60405180910390f35b3480156104a357600080fd5b506104be60048036038101906104b99190614be5565b611147565b6040516104cb9190614939565b60405180910390f35b3480156104e057600080fd5b506104e9611182565b6040516104f69190614e85565b60405180910390f35b34801561050b57600080fd5b5061051461158a565b60405161052191906146f4565b60405180910390f35b610544600480360381019061053f919061474c565b61161c565b005b34801561055257600080fd5b5061056d60048036038101906105689190614ed3565b611a78565b005b34801561057b57600080fd5b50610584611a8e565b6040516105919190614939565b60405180910390f35b3480156105a657600080fd5b506105c160048036038101906105bc9190614fb4565b611a94565b005b6105dd60048036038101906105d8919061474c565b611af6565b005b3480156105eb57600080fd5b506105f4611bb6565b6040516106019190614e85565b60405180910390f35b610624600480360381019061061f9190615037565b612051565b6040516106319190614939565b60405180910390f35b34801561064657600080fd5b50610661600480360381019061065c919061474c565b61209d565b60405161066e91906146f4565b60405180910390f35b34801561068357600080fd5b5061069e600480360381019061069991906150ee565b6121b0565b005b3480156106ac57600080fd5b506106c760048036038101906106c2919061474c565b612341565b6040516106d491906146f4565b60405180910390f35b3480156106e957600080fd5b5061070460048036038101906106ff919061512e565b6123e1565b6040516107119190614640565b60405180910390f35b34801561072657600080fd5b50610741600480360381019061073c919061474c565b612475565b005b34801561074f57600080fd5b5061076a600480360381019061076591906149e7565b6129ff565b60405161077791906146f4565b60405180910390f35b34801561078c57600080fd5b506107a760048036038101906107a2919061474c565b612ad0565b005b6000634906490660e01b7bffffffffffffffffffffffffffffffffffffffffffffffffffffffff1916827bffffffffffffffffffffffffffffffffffffffffffffffffffffffff19161480610803575061080282612cd2565b5b9050919050565b6060606580546108199061519d565b80601f01602080910402602001604051908101604052809291908181526020018280546108459061519d565b80156108925780601f1061086757610100808354040283529160200191610892565b820191906000526020600020905b81548152906001019060200180831161087557829003601f168201915b5050505050905090565b60006108a782612db4565b6069600083815260200190815260200160002060009054906101000a900473ffffffffffffffffffffffffffffffffffffffff169050919050565b60cd6020528060005260406000206000915090508060000154908060010160009054906101000a900473ffffffffffffffffffffffffffffffffffffffff16908060020160009054906101000a900473ffffffffffffffffffffffffffffffffffffffff16908060030154908060040160009054906101000a900460ff16908060050180546109709061519d565b80601f016020809104026020016040519081016040528092919081815260200182805461099c9061519d565b80156109e95780601f106109be576101008083540402835291602001916109e9565b820191906000526020600020905b8154815290600101906020018083116109cc57829003601f168201915b5050505050908060060180546109fe9061519d565b80601f0160208091040260200160405190810160405280929190818152602001828054610a2a9061519d565b8015610a775780601f10610a4c57610100808354040283529160200191610a77565b820191906000526020600020905b815481529060010190602001808311610a5a57829003601f168201915b5050505050908060070160009054906101000a900460ff16908060080154908060090160009054906101000a900473ffffffffffffffffffffffffffffffffffffffff169080600a01549080600b015490508c565b6000610ad782610c8f565b90508073ffffffffffffffffffffffffffffffffffffffff168373ffffffffffffffffffffffffffffffffffffffff161415610b48576040517f08c379a0000000000000000000000000000000000000000000000000000000008152600401610b3f90615241565b60405180910390fd5b8073ffffffffffffffffffffffffffffffffffffffff16610b67612dff565b73ffffffffffffffffffffffffffffffffffffffff161480610b965750610b9581610b90612dff565b6123e1565b5b610bd5576040517f08c379a0000000000000000000000000000000000000000000000000000000008152600401610bcc906152d3565b60405180910390fd5b610bdf8383612e07565b505050565b60d25481565b610bfb610bf5612dff565b82612ec0565b610c3a576040517f08c379a0000000000000000000000000000000000000000000000000000000008152600401610c3190615365565b60405180910390fd5b610c45838383612f55565b505050565b60d0602052816000526040600020602052806000526040600020600091509150505481565b610c8a83838360405180602001604052806000815250611a94565b505050565b600080610c9b8361324f565b9050600073ffffffffffffffffffffffffffffffffffffffff168173ffffffffffffffffffffffffffffffffffffffff161415610d0d576040517f08c379a0000000000000000000000000000000000000000000000000000000008152600401610d04906153d1565b60405180910390fd5b80915050919050565b60008073ffffffffffffffffffffffffffffffffffffffff168273ffffffffffffffffffffffffffffffffffffffff161415610d87576040517f08c379a0000000000000000000000000000000000000000000000000000000008152600401610d7e90615463565b60405180910390fd5b606860008373ffffffffffffffffffffffffffffffffffffffff1673ffffffffffffffffffffffffffffffffffffffff168152602001908152602001600020549050919050565b3373ffffffffffffffffffffffffffffffffffffffff1660cd600084815260200190815260200160002060010160009054906101000a900473ffffffffffffffffffffffffffffffffffffffff1673ffffffffffffffffffffffffffffffffffffffff16148015610e60575060cd600083815260200190815260200160002060040160009054906101000a900460ff16155b610e6957600080fd5b600160cd600084815260200190815260200160002060070160006101000a81548160ff021916908315150217905550607842610ea591906154b2565b60cd6000848152602001908152602001600020600801819055508060d160008481526020019081526020016000209080519060200190610ee6929190614442565b505050565b3373ffffffffffffffffffffffffffffffffffffffff1660cd600084815260200190815260200160002060020160009054906101000a900473ffffffffffffffffffffffffffffffffffffffff1673ffffffffffffffffffffffffffffffffffffffff16148015610f5d575060cb5434145b610f6657600080fd5b600060cd600084815260200190815260200160002060040160006101000a81548160ff0219169083151502179055508060cd6000848152602001908152602001600020600301819055503360cd600084815260200190815260200160002060010160006101000a81548173ffffffffffffffffffffffffffffffffffffffff021916908373ffffffffffffffffffffffffffffffffffffffff1602179055503060cd600084815260200190815260200160002060020160006101000a81548173ffffffffffffffffffffffffffffffffffffffff021916908373ffffffffffffffffffffffffffffffffffffffff160217905550600060cd600084815260200190815260200160002060070160006101000a81548160ff02191690831515021790555060ca600081548092919061109c90615508565b9190505550600160ce60003373ffffffffffffffffffffffffffffffffffffffff1673ffffffffffffffffffffffffffffffffffffffff16815260200190815260200160002060cd600085815260200190815260200160002060060160405161110591906155d1565b9081526020016040518091039020600082825461112291906155e8565b925050819055506111323361328c565b61113d333084612f55565b5050565b60ca5481565b60ce60205281600052604060002081805160208101820180518482526020830160208501208183528095505050505050600091509150505481565b6060600060c9549050600060ca5460c95461119d91906155e8565b90506000808267ffffffffffffffff8111156111bc576111bb614a1e565b5b6040519080825280602002602001820160405280156111f557816020015b6111e26144c8565b8152602001906001900390816111da5790505b50905060005b8481101561157f573073ffffffffffffffffffffffffffffffffffffffff1660cd600060018461122b91906154b2565b815260200190815260200160002060020160009054906101000a900473ffffffffffffffffffffffffffffffffffffffff1673ffffffffffffffffffffffffffffffffffffffff16141561156c57600060018261128891906154b2565b9050600060cd600083815260200190815260200160002090508060405180610180016040529081600082015481526020016001820160009054906101000a900473ffffffffffffffffffffffffffffffffffffffff1673ffffffffffffffffffffffffffffffffffffffff1673ffffffffffffffffffffffffffffffffffffffff1681526020016002820160009054906101000a900473ffffffffffffffffffffffffffffffffffffffff1673ffffffffffffffffffffffffffffffffffffffff1673ffffffffffffffffffffffffffffffffffffffff168152602001600382015481526020016004820160009054906101000a900460ff161515151581526020016005820180546113999061519d565b80601f01602080910402602001604051908101604052809291908181526020018280546113c59061519d565b80156114125780601f106113e757610100808354040283529160200191611412565b820191906000526020600020905b8154815290600101906020018083116113f557829003601f168201915b5050505050815260200160068201805461142b9061519d565b80601f01602080910402602001604051908101604052809291908181526020018280546114579061519d565b80156114a45780601f10611479576101008083540402835291602001916114a4565b820191906000526020600020905b81548152906001019060200180831161148757829003601f168201915b505050505081526020016007820160009054906101000a900460ff16151515158152602001600882015481526020016009820160009054906101000a900473ffffffffffffffffffffffffffffffffffffffff1673ffffffffffffffffffffffffffffffffffffffff1673ffffffffffffffffffffffffffffffffffffffff168152602001600a8201548152602001600b8201548152505084868151811061154f5761154e61561c565b5b602002602001018190525060018561156791906154b2565b945050505b80806115779061564b565b9150506111fb565b508094505050505090565b6060606680546115999061519d565b80601f01602080910402602001604051908101604052809291908181526020018280546115c59061519d565b80156116125780601f106115e757610100808354040283529160200191611612565b820191906000526020600020905b8154815290600101906020018083116115f557829003601f168201915b5050505050905090565b60003460d0600084815260200190815260200160002060003373ffffffffffffffffffffffffffffffffffffffff1673ffffffffffffffffffffffffffffffffffffffff1681526020019081526020016000205461167a91906154b2565b905060cd6000838152602001908152602001600020600a0154811180156116b7575060cd6000838152602001908152602001600020600801544211155b8015611725575060cd600083815260200190815260200160002060010160009054906101000a900473ffffffffffffffffffffffffffffffffffffffff1673ffffffffffffffffffffffffffffffffffffffff163373ffffffffffffffffffffffffffffffffffffffff1614155b80156117395750670de0b6b3a76400003410155b61174257600080fd5b600060d0600084815260200190815260200160002060003373ffffffffffffffffffffffffffffffffffffffff1673ffffffffffffffffffffffffffffffffffffffff1681526020019081526020016000205414156117c85760cd6000838152602001908152602001600020600b0160008154809291906117c29061564b565b91905055505b8060d0600084815260200190815260200160002060003373ffffffffffffffffffffffffffffffffffffffff1673ffffffffffffffffffffffffffffffffffffffff1681526020019081526020016000208190555060d06000838152602001908152602001600020600060cd600085815260200190815260200160002060090160009054906101000a900473ffffffffffffffffffffffffffffffffffffffff1673ffffffffffffffffffffffffffffffffffffffff1673ffffffffffffffffffffffffffffffffffffffff168152602001908152602001600020548110156119675761194860d254826118bc91906154b2565b60d06000858152602001908152602001600020600060cd600087815260200190815260200160002060090160009054906101000a900473ffffffffffffffffffffffffffffffffffffffff1673ffffffffffffffffffffffffffffffffffffffff1673ffffffffffffffffffffffffffffffffffffffff16815260200190815260200160002054613517565b60cd6000848152602001908152602001600020600a0181905550611a74565b611a048160d25460d06000868152602001908152602001600020600060cd600088815260200190815260200160002060090160009054906101000a900473ffffffffffffffffffffffffffffffffffffffff1673ffffffffffffffffffffffffffffffffffffffff1673ffffffffffffffffffffffffffffffffffffffff168152602001908152602001600020546119ff91906154b2565b613517565b60cd6000848152602001908152602001600020600a01819055503360cd600084815260200190815260200160002060090160006101000a81548173ffffffffffffffffffffffffffffffffffffffff021916908373ffffffffffffffffffffffffffffffffffffffff1602179055505b5050565b611a8a611a83612dff565b8383613532565b5050565b60c95481565b611aa5611a9f612dff565b83612ec0565b611ae4576040517f08c379a0000000000000000000000000000000000000000000000000000000008152600401611adb90615365565b60405180910390fd5b611af08484848461369f565b50505050565b600060cd600083815260200190815260200160002060030154905060cb5481611b1f91906154b2565b341015611b2b57600080fd5b60cd600083815260200190815260200160002060010160009054906101000a900473ffffffffffffffffffffffffffffffffffffffff1673ffffffffffffffffffffffffffffffffffffffff166108fc349081150290604051600060405180830381858888f19350505050158015611ba7573d6000803e3d6000fd5b50611bb282336121b0565b5050565b6060600060c954905060008060005b83811015611c66573373ffffffffffffffffffffffffffffffffffffffff1660cd6000600184611bf591906154b2565b815260200190815260200160002060020160009054906101000a900473ffffffffffffffffffffffffffffffffffffffff1673ffffffffffffffffffffffffffffffffffffffff161415611c5357600183611c5091906154b2565b92505b8080611c5e9061564b565b915050611bc5565b5060008267ffffffffffffffff811115611c8357611c82614a1e565b5b604051908082528060200260200182016040528015611cbc57816020015b611ca96144c8565b815260200190600190039081611ca15790505b50905060005b84811015612046573373ffffffffffffffffffffffffffffffffffffffff1660cd6000600184611cf291906154b2565b815260200190815260200160002060020160009054906101000a900473ffffffffffffffffffffffffffffffffffffffff1673ffffffffffffffffffffffffffffffffffffffff161415612033576000600182611d4f91906154b2565b9050600060cd600083815260200190815260200160002090508060405180610180016040529081600082015481526020016001820160009054906101000a900473ffffffffffffffffffffffffffffffffffffffff1673ffffffffffffffffffffffffffffffffffffffff1673ffffffffffffffffffffffffffffffffffffffff1681526020016002820160009054906101000a900473ffffffffffffffffffffffffffffffffffffffff1673ffffffffffffffffffffffffffffffffffffffff1673ffffffffffffffffffffffffffffffffffffffff168152602001600382015481526020016004820160009054906101000a900460ff16151515158152602001600582018054611e609061519d565b80601f0160208091040260200160405190810160405280929190818152602001828054611e8c9061519d565b8015611ed95780601f10611eae57610100808354040283529160200191611ed9565b820191906000526020600020905b815481529060010190602001808311611ebc57829003601f168201915b50505050508152602001600682018054611ef29061519d565b80601f0160208091040260200160405190810160405280929190818152602001828054611f1e9061519d565b8015611f6b5780601f10611f4057610100808354040283529160200191611f6b565b820191906000526020600020905b815481529060010190602001808311611f4e57829003601f168201915b505050505081526020016007820160009054906101000a900460ff16151515158152602001600882015481526020016009820160009054906101000a900473ffffffffffffffffffffffffffffffffffffffff1673ffffffffffffffffffffffffffffffffffffffff1673ffffffffffffffffffffffffffffffffffffffff168152602001600a8201548152602001600b820154815250508486815181106120165761201561561c565b5b602002602001018190525060018561202e91906154b2565b945050505b808061203e9061564b565b915050611cc2565b508094505050505090565b600060c960008154809291906120669061564b565b9190505550600060c954905061207c33826136fb565b6120868186613919565b612092818587866139c4565b809150509392505050565b60606120a882612db4565b60006097600084815260200190815260200160002080546120c89061519d565b80601f01602080910402602001604051908101604052809291908181526020018280546120f49061519d565b80156121415780601f1061211657610100808354040283529160200191612141565b820191906000526020600020905b81548152906001019060200180831161212457829003601f168201915b505050505090506000612152613c38565b90506000815114156121685781925050506121ab565b60008251111561219d5780826040516020016121859291906156c5565b604051602081830303815290604052925050506121ab565b6121a684613c4f565b925050505b919050565b8060cd600084815260200190815260200160002060020160006101000a81548173ffffffffffffffffffffffffffffffffffffffff021916908373ffffffffffffffffffffffffffffffffffffffff160217905550600160cd600084815260200190815260200160002060040160006101000a81548160ff0219169083151502179055508060cd600084815260200190815260200160002060010160006101000a81548173ffffffffffffffffffffffffffffffffffffffff021916908373ffffffffffffffffffffffffffffffffffffffff16021790555060ca600081548092919061229c9061564b565b9190505550600160ce60008373ffffffffffffffffffffffffffffffffffffffff1673ffffffffffffffffffffffffffffffffffffffff16815260200190815260200160002060cd600085815260200190815260200160002060060160405161230591906155d1565b9081526020016040518091039020600082825461232291906154b2565b925050819055506123328161328c565b61233d308284612f55565b5050565b60d160205280600052604060002060009150905080546123609061519d565b80601f016020809104026020016040519081016040528092919081815260200182805461238c9061519d565b80156123d95780601f106123ae576101008083540402835291602001916123d9565b820191906000526020600020905b8154815290600101906020018083116123bc57829003601f168201915b505050505081565b6000606a60008473ffffffffffffffffffffffffffffffffffffffff1673ffffffffffffffffffffffffffffffffffffffff16815260200190815260200160002060008373ffffffffffffffffffffffffffffffffffffffff1673ffffffffffffffffffffffffffffffffffffffff16815260200190815260200160002060009054906101000a900460ff16905092915050565b600060cd600083815260200190815260200160002060090160009054906101000a900473ffffffffffffffffffffffffffffffffffffffff169050600060cd600084815260200190815260200160002060010160009054906101000a900473ffffffffffffffffffffffffffffffffffffffff169050600060cd6000858152602001908152602001600020600a015490506000339050600060cd6000878152602001908152602001600020600b0154905060cd6000878152602001908152602001600020600801544211801561257757508473ffffffffffffffffffffffffffffffffffffffff163373ffffffffffffffffffffffffffffffffffffffff1614155b61258057600080fd5b600073ffffffffffffffffffffffffffffffffffffffff168573ffffffffffffffffffffffffffffffffffffffff16146129be5760008473ffffffffffffffffffffffffffffffffffffffff168373ffffffffffffffffffffffffffffffffffffffff161415612864578360d0600089815260200190815260200160002060008873ffffffffffffffffffffffffffffffffffffffff1673ffffffffffffffffffffffffffffffffffffffff16815260200190815260200160002054141561270057600060d0600089815260200190815260200160002060008873ffffffffffffffffffffffffffffffffffffffff1673ffffffffffffffffffffffffffffffffffffffff168152602001908152602001600020819055508473ffffffffffffffffffffffffffffffffffffffff166108fc6605543df729c000866126c591906155e8565b9081150290604051600060405180830381858888f193505050501580156126f0573d6000803e3d6000fd5b506126fb87876121b0565b61285f565b6605543df729c0008460d060008a815260200190815260200160002060008973ffffffffffffffffffffffffffffffffffffffff1673ffffffffffffffffffffffffffffffffffffffff1681526020019081526020016000205461276491906155e8565b61276e91906155e8565b9050600060d0600089815260200190815260200160002060008873ffffffffffffffffffffffffffffffffffffffff1673ffffffffffffffffffffffffffffffffffffffff168152602001908152602001600020819055508473ffffffffffffffffffffffffffffffffffffffff166108fc859081150290604051600060405180830381858888f1935050505015801561280c573d6000803e3d6000fd5b508573ffffffffffffffffffffffffffffffffffffffff166108fc829081150290604051600060405180830381858888f19350505050158015612853573d6000803e3d6000fd5b5061285e87876121b0565b5b6129ae565b600060d0600089815260200190815260200160002060008573ffffffffffffffffffffffffffffffffffffffff1673ffffffffffffffffffffffffffffffffffffffff16815260200190815260200160002054146129ad5760d0600088815260200190815260200160002060008473ffffffffffffffffffffffffffffffffffffffff1673ffffffffffffffffffffffffffffffffffffffff168152602001908152602001600020549050600060d0600089815260200190815260200160002060008573ffffffffffffffffffffffffffffffffffffffff1673ffffffffffffffffffffffffffffffffffffffff168152602001908152602001600020819055508273ffffffffffffffffffffffffffffffffffffffff166108fc829081150290604051600060405180830381858888f193505050501580156129ab573d6000803e3d6000fd5b505b5b81806129b990615508565b925050505b60008114156129f757600060cd600088815260200190815260200160002060070160006101000a81548160ff0219169083151502179055505b505050505050565b606060cf60008373ffffffffffffffffffffffffffffffffffffffff1673ffffffffffffffffffffffffffffffffffffffff1681526020019081526020016000208054612a4b9061519d565b80601f0160208091040260200160405190810160405280929190818152602001828054612a779061519d565b8015612ac45780601f10612a9957610100808354040283529160200191612ac4565b820191906000526020600020905b815481529060010190602001808311612aa757829003601f168201915b50505050509050919050565b60008060019054906101000a900460ff16159050808015612b015750600160008054906101000a900460ff1660ff16105b80612b2e5750612b1030613cb7565b158015612b2d5750600160008054906101000a900460ff1660ff16145b5b612b6d576040517f08c379a0000000000000000000000000000000000000000000000000000000008152600401612b649061575b565b60405180910390fd5b60016000806101000a81548160ff021916908360ff1602179055508015612baa576001600060016101000a81548160ff0219169083151502179055505b612c1e6040518060400160405280601381526020017f4e4654204d657461766572736520546f6b656e000000000000000000000000008152506040518060400160405280600581526020017f4d594e4654000000000000000000000000000000000000000000000000000000815250613cda565b3360cc60006101000a81548173ffffffffffffffffffffffffffffffffffffffff021916908373ffffffffffffffffffffffffffffffffffffffff1602179055508160cb81905550670de0b6b3a764000060d2819055508015612cce5760008060016101000a81548160ff0219169083151502179055507f7f26b83ff96e1f2b6a682f133852f6798a09c465da95921460cefb38474024986001604051612cc591906157cd565b60405180910390a15b5050565b60007f80ac58cd000000000000000000000000000000000000000000000000000000007bffffffffffffffffffffffffffffffffffffffffffffffffffffffff1916827bffffffffffffffffffffffffffffffffffffffffffffffffffffffff19161480612d9d57507f5b5e139f000000000000000000000000000000000000000000000000000000007bffffffffffffffffffffffffffffffffffffffffffffffffffffffff1916827bffffffffffffffffffffffffffffffffffffffffffffffffffffffff1916145b80612dad5750612dac82613d37565b5b9050919050565b612dbd81613da1565b612dfc576040517f08c379a0000000000000000000000000000000000000000000000000000000008152600401612df3906153d1565b60405180910390fd5b50565b600033905090565b816069600083815260200190815260200160002060006101000a81548173ffffffffffffffffffffffffffffffffffffffff021916908373ffffffffffffffffffffffffffffffffffffffff160217905550808273ffffffffffffffffffffffffffffffffffffffff16612e7a83610c8f565b73ffffffffffffffffffffffffffffffffffffffff167f8c5be1e5ebec7d5bd14f71427d1e84f3dd0314c0f7b2291e5b200ac8c7c3b92560405160405180910390a45050565b600080612ecc83610c8f565b90508073ffffffffffffffffffffffffffffffffffffffff168473ffffffffffffffffffffffffffffffffffffffff161480612f0e5750612f0d81856123e1565b5b80612f4c57508373ffffffffffffffffffffffffffffffffffffffff16612f348461089c565b73ffffffffffffffffffffffffffffffffffffffff16145b91505092915050565b8273ffffffffffffffffffffffffffffffffffffffff16612f7582610c8f565b73ffffffffffffffffffffffffffffffffffffffff1614612fcb576040517f08c379a0000000000000000000000000000000000000000000000000000000008152600401612fc29061585a565b60405180910390fd5b600073ffffffffffffffffffffffffffffffffffffffff168273ffffffffffffffffffffffffffffffffffffffff16141561303b576040517f08c379a0000000000000000000000000000000000000000000000000000000008152600401613032906158ec565b60405180910390fd5b6130488383836001613de2565b8273ffffffffffffffffffffffffffffffffffffffff1661306882610c8f565b73ffffffffffffffffffffffffffffffffffffffff16146130be576040517f08c379a00000000000000000000000000000000000000000000000000000000081526004016130b59061585a565b60405180910390fd5b6069600082815260200190815260200160002060006101000a81549073ffffffffffffffffffffffffffffffffffffffff02191690556001606860008573ffffffffffffffffffffffffffffffffffffffff1673ffffffffffffffffffffffffffffffffffffffff168152602001908152602001600020600082825403925050819055506001606860008473ffffffffffffffffffffffffffffffffffffffff1673ffffffffffffffffffffffffffffffffffffffff16815260200190815260200160002060008282540192505081905550816067600083815260200190815260200160002060006101000a81548173ffffffffffffffffffffffffffffffffffffffff021916908373ffffffffffffffffffffffffffffffffffffffff160217905550808273ffffffffffffffffffffffffffffffffffffffff168473ffffffffffffffffffffffffffffffffffffffff167fddf252ad1be2c89b69c2b068fc378daa952ba7f163c4a11628f55a4df523b3ef60405160405180910390a461324a8383836001613de8565b505050565b60006067600083815260200190815260200160002060009054906101000a900473ffffffffffffffffffffffffffffffffffffffff169050919050565b60006040518060c001604052806040518060400160405280600681526020017f67616d696e67000000000000000000000000000000000000000000000000000081525081526020016040518060400160405280600681526020017f686f72726f72000000000000000000000000000000000000000000000000000081525081526020016040518060400160405280600681526020017f6d6f6e6b6579000000000000000000000000000000000000000000000000000081525081526020016040518060400160405280600581526020017f616e696d6500000000000000000000000000000000000000000000000000000081525081526020016040518060400160405280600381526020017f617274000000000000000000000000000000000000000000000000000000000081525081526020016040518060400160405280600581526020017f6d6f76696500000000000000000000000000000000000000000000000000000081525081525090506000606060005b60068110156134bc57600060ce60008773ffffffffffffffffffffffffffffffffffffffff1673ffffffffffffffffffffffffffffffffffffffff16815260200190815260200160002085836006811061345f5761345e61561c565b5b6020020151604051613471919061590c565b9081526020016040518091039020549050838111156134a8578093508482600681106134a05761349f61561c565b5b602002015192505b5080806134b49061564b565b915050613402565b508060cf60008673ffffffffffffffffffffffffffffffffffffffff1673ffffffffffffffffffffffffffffffffffffffff1681526020019081526020016000209080519060200190613510929190614442565b5050505050565b60008183116135285782905061352c565b8190505b92915050565b8173ffffffffffffffffffffffffffffffffffffffff168373ffffffffffffffffffffffffffffffffffffffff1614156135a1576040517f08c379a00000000000000000000000000000000000000000000000000000000081526004016135989061596f565b60405180910390fd5b80606a60008573ffffffffffffffffffffffffffffffffffffffff1673ffffffffffffffffffffffffffffffffffffffff16815260200190815260200160002060008473ffffffffffffffffffffffffffffffffffffffff1673ffffffffffffffffffffffffffffffffffffffff16815260200190815260200160002060006101000a81548160ff0219169083151502179055508173ffffffffffffffffffffffffffffffffffffffff168373ffffffffffffffffffffffffffffffffffffffff167f17307eab39ab6107e8899845ad3d59bd9653f200f220920489ca2b5937696c31836040516136929190614640565b60405180910390a3505050565b6136aa848484612f55565b6136b684848484613dee565b6136f5576040517f08c379a00000000000000000000000000000000000000000000000000000000081526004016136ec90615a01565b60405180910390fd5b50505050565b600073ffffffffffffffffffffffffffffffffffffffff168273ffffffffffffffffffffffffffffffffffffffff16141561376b576040517f08c379a000000000000000000000000000000000000000000000000000000000815260040161376290615a6d565b60405180910390fd5b61377481613da1565b156137b4576040517f08c379a00000000000000000000000000000000000000000000000000000000081526004016137ab90615ad9565b60405180910390fd5b6137c2600083836001613de2565b6137cb81613da1565b1561380b576040517f08c379a000000000000000000000000000000000000000000000000000000000815260040161380290615ad9565b60405180910390fd5b6001606860008473ffffffffffffffffffffffffffffffffffffffff1673ffffffffffffffffffffffffffffffffffffffff16815260200190815260200160002060008282540192505081905550816067600083815260200190815260200160002060006101000a81548173ffffffffffffffffffffffffffffffffffffffff021916908373ffffffffffffffffffffffffffffffffffffffff160217905550808273ffffffffffffffffffffffffffffffffffffffff16600073ffffffffffffffffffffffffffffffffffffffff167fddf252ad1be2c89b69c2b068fc378daa952ba7f163c4a11628f55a4df523b3ef60405160405180910390a4613915600083836001613de8565b5050565b61392282613da1565b613961576040517f08c379a000000000000000000000000000000000000000000000000000000000815260040161395890615b6b565b60405180910390fd5b80609760008481526020019081526020016000209080519060200190613988929190614442565b507ff8e1a15aba9398e019f0b49df1a4fde98ee17ae345cb5f6b5e2c27f5033e8ce7826040516139b89190614939565b60405180910390a15050565b6000831180156139d5575060cb5434145b80156139e657506139e581613f85565b5b6139ef57600080fd5b6040518061018001604052808581526020013373ffffffffffffffffffffffffffffffffffffffff1681526020013073ffffffffffffffffffffffffffffffffffffffff168152602001848152602001600015158152602001838152602001828152602001600015158152602001428152602001600073ffffffffffffffffffffffffffffffffffffffff16815260200160008152602001600081525060cd60008681526020019081526020016000206000820151816000015560208201518160010160006101000a81548173ffffffffffffffffffffffffffffffffffffffff021916908373ffffffffffffffffffffffffffffffffffffffff16021790555060408201518160020160006101000a81548173ffffffffffffffffffffffffffffffffffffffff021916908373ffffffffffffffffffffffffffffffffffffffff1602179055506060820151816003015560808201518160040160006101000a81548160ff02191690831515021790555060a0820151816005019080519060200190613b7d929190614442565b5060c0820151816006019080519060200190613b9a929190614442565b5060e08201518160070160006101000a81548160ff02191690831515021790555061010082015181600801556101208201518160090160006101000a81548173ffffffffffffffffffffffffffffffffffffffff021916908373ffffffffffffffffffffffffffffffffffffffff16021790555061014082015181600a015561016082015181600b0155905050613c32333086612f55565b50505050565b606060405180602001604052806000815250905090565b6060613c5a82612db4565b6000613c64613c38565b90506000815111613c845760405180602001604052806000815250613caf565b80613c8e84614196565b604051602001613c9f9291906156c5565b6040516020818303038152906040525b915050919050565b6000808273ffffffffffffffffffffffffffffffffffffffff163b119050919050565b600060019054906101000a900460ff16613d29576040517f08c379a0000000000000000000000000000000000000000000000000000000008152600401613d2090615bfd565b60405180910390fd5b613d33828261426e565b5050565b60007f01ffc9a7000000000000000000000000000000000000000000000000000000007bffffffffffffffffffffffffffffffffffffffffffffffffffffffff1916827bffffffffffffffffffffffffffffffffffffffffffffffffffffffff1916149050919050565b60008073ffffffffffffffffffffffffffffffffffffffff16613dc38361324f565b73ffffffffffffffffffffffffffffffffffffffff1614159050919050565b50505050565b50505050565b6000613e0f8473ffffffffffffffffffffffffffffffffffffffff16613cb7565b15613f78578373ffffffffffffffffffffffffffffffffffffffff1663150b7a02613e38612dff565b8786866040518563ffffffff1660e01b8152600401613e5a9493929190615c72565b602060405180830381600087803b158015613e7457600080fd5b505af1925050508015613ea557506040513d601f19601f82011682018060405250810190613ea29190615cd3565b60015b613f28573d8060008114613ed5576040519150601f19603f3d011682016040523d82523d6000602084013e613eda565b606091505b50600081511415613f20576040517f08c379a0000000000000000000000000000000000000000000000000000000008152600401613f1790615a01565b60405180910390fd5b805181602001fd5b63150b7a0260e01b7bffffffffffffffffffffffffffffffffffffffffffffffffffffffff1916817bffffffffffffffffffffffffffffffffffffffffffffffffffffffff191614915050613f7d565b600190505b949350505050565b6000806040518060c001604052806040518060400160405280600681526020017f67616d696e67000000000000000000000000000000000000000000000000000081525081526020016040518060400160405280600681526020017f686f72726f72000000000000000000000000000000000000000000000000000081525081526020016040518060400160405280600681526020017f6d6f6e6b6579000000000000000000000000000000000000000000000000000081525081526020016040518060400160405280600581526020017f616e696d6500000000000000000000000000000000000000000000000000000081525081526020016040518060400160405280600381526020017f617274000000000000000000000000000000000000000000000000000000000081525081526020016040518060400160405280600581526020017f6d6f766965000000000000000000000000000000000000000000000000000000815250815250905060005b600681101561418a578181600681106141145761411361561c565b5b6020020151604051602001614129919061590c565b6040516020818303038152906040528051906020012084604051602001614150919061590c565b60405160208183030381529060405280519060200120141561417757600192505050614191565b80806141829061564b565b9150506140f8565b5060009150505b919050565b6060600060016141a5846142ef565b01905060008167ffffffffffffffff8111156141c4576141c3614a1e565b5b6040519080825280601f01601f1916602001820160405280156141f65781602001600182028036833780820191505090505b509050600082602001820190505b600115614263578080600190039150507f3031323334353637383961626364656600000000000000000000000000000000600a86061a8153600a858161424d5761424c615d00565b5b049450600085141561425e57614263565b614204565b819350505050919050565b600060019054906101000a900460ff166142bd576040517f08c379a00000000000000000000000000000000000000000000000000000000081526004016142b490615bfd565b60405180910390fd5b81606590805190602001906142d3929190614442565b5080606690805190602001906142ea929190614442565b505050565b600080600090507a184f03e93ff9f4daa797ed6e38ed64bf6a1f010000000000000000831061434d577a184f03e93ff9f4daa797ed6e38ed64bf6a1f010000000000000000838161434357614342615d00565b5b0492506040810190505b6d04ee2d6d415b85acef8100000000831061438a576d04ee2d6d415b85acef810000000083816143805761437f615d00565b5b0492506020810190505b662386f26fc1000083106143b957662386f26fc1000083816143af576143ae615d00565b5b0492506010810190505b6305f5e10083106143e2576305f5e10083816143d8576143d7615d00565b5b0492506008810190505b61271083106144075761271083816143fd576143fc615d00565b5b0492506004810190505b6064831061442a57606483816144205761441f615d00565b5b0492506002810190505b600a8310614439576001810190505b80915050919050565b82805461444e9061519d565b90600052602060002090601f01602090048101928261447057600085556144b7565b82601f1061448957805160ff19168380011785556144b7565b828001600101855582156144b7579182015b828111156144b657825182559160200191906001019061449b565b5b5090506144c4919061456f565b5090565b60405180610180016040528060008152602001600073ffffffffffffffffffffffffffffffffffffffff168152602001600073ffffffffffffffffffffffffffffffffffffffff16815260200160008152602001600015158152602001606081526020016060815260200160001515815260200160008152602001600073ffffffffffffffffffffffffffffffffffffffff16815260200160008152602001600081525090565b5b80821115614588576000816000905550600101614570565b5090565b6000604051905090565b600080fd5b600080fd5b60007fffffffff0000000000000000000000000000000000000000000000000000000082169050919050565b6145d5816145a0565b81146145e057600080fd5b50565b6000813590506145f2816145cc565b92915050565b60006020828403121561460e5761460d614596565b5b600061461c848285016145e3565b91505092915050565b60008115159050919050565b61463a81614625565b82525050565b60006020820190506146556000830184614631565b92915050565b600081519050919050565b600082825260208201905092915050565b60005b8381101561469557808201518184015260208101905061467a565b838111156146a4576000848401525b50505050565b6000601f19601f8301169050919050565b60006146c68261465b565b6146d08185614666565b93506146e0818560208601614677565b6146e9816146aa565b840191505092915050565b6000602082019050818103600083015261470e81846146bb565b905092915050565b6000819050919050565b61472981614716565b811461473457600080fd5b50565b60008135905061474681614720565b92915050565b60006020828403121561476257614761614596565b5b600061477084828501614737565b91505092915050565b600073ffffffffffffffffffffffffffffffffffffffff82169050919050565b60006147a482614779565b9050919050565b6147b481614799565b82525050565b60006020820190506147cf60008301846147ab565b92915050565b6147de81614716565b82525050565b60006147ef82614779565b9050919050565b6147ff816147e4565b82525050565b60006101808201905061481b600083018f6147d5565b614828602083018e6147f6565b614835604083018d6147f6565b614842606083018c6147d5565b61484f608083018b614631565b81810360a0830152614861818a6146bb565b905081810360c083015261487581896146bb565b905061488460e0830188614631565b6148926101008301876147d5565b6148a06101208301866147f6565b6148ae6101408301856147d5565b6148bc6101608301846147d5565b9d9c50505050505050505050505050565b6148d681614799565b81146148e157600080fd5b50565b6000813590506148f3816148cd565b92915050565b600080604083850312156149105761490f614596565b5b600061491e858286016148e4565b925050602061492f85828601614737565b9150509250929050565b600060208201905061494e60008301846147d5565b92915050565b60008060006060848603121561496d5761496c614596565b5b600061497b868287016148e4565b935050602061498c868287016148e4565b925050604061499d86828701614737565b9150509250925092565b600080604083850312156149be576149bd614596565b5b60006149cc85828601614737565b92505060206149dd858286016148e4565b9150509250929050565b6000602082840312156149fd576149fc614596565b5b6000614a0b848285016148e4565b91505092915050565b600080fd5b600080fd5b7f4e487b7100000000000000000000000000000000000000000000000000000000600052604160045260246000fd5b614a56826146aa565b810181811067ffffffffffffffff82111715614a7557614a74614a1e565b5b80604052505050565b6000614a8861458c565b9050614a948282614a4d565b919050565b600067ffffffffffffffff821115614ab457614ab3614a1e565b5b614abd826146aa565b9050602081019050919050565b82818337600083830152505050565b6000614aec614ae784614a99565b614a7e565b905082815260208101848484011115614b0857614b07614a19565b5b614b13848285614aca565b509392505050565b600082601f830112614b3057614b2f614a14565b5b8135614b40848260208601614ad9565b91505092915050565b60008060408385031215614b6057614b5f614596565b5b6000614b6e85828601614737565b925050602083013567ffffffffffffffff811115614b8f57614b8e61459b565b5b614b9b85828601614b1b565b9150509250929050565b60008060408385031215614bbc57614bbb614596565b5b6000614bca85828601614737565b9250506020614bdb85828601614737565b9150509250929050565b60008060408385031215614bfc57614bfb614596565b5b6000614c0a858286016148e4565b925050602083013567ffffffffffffffff811115614c2b57614c2a61459b565b5b614c3785828601614b1b565b9150509250929050565b600081519050919050565b600082825260208201905092915050565b6000819050602082019050919050565b614c7681614716565b82525050565b614c85816147e4565b82525050565b614c9481614625565b82525050565b600082825260208201905092915050565b6000614cb68261465b565b614cc08185614c9a565b9350614cd0818560208601614677565b614cd9816146aa565b840191505092915050565b600061018083016000830151614cfd6000860182614c6d565b506020830151614d106020860182614c7c565b506040830151614d236040860182614c7c565b506060830151614d366060860182614c6d565b506080830151614d496080860182614c8b565b5060a083015184820360a0860152614d618282614cab565b91505060c083015184820360c0860152614d7b8282614cab565b91505060e0830151614d9060e0860182614c8b565b50610100830151614da5610100860182614c6d565b50610120830151614dba610120860182614c7c565b50610140830151614dcf610140860182614c6d565b50610160830151614de4610160860182614c6d565b508091505092915050565b6000614dfb8383614ce4565b905092915050565b6000602082019050919050565b6000614e1b82614c41565b614e258185614c4c565b935083602082028501614e3785614c5d565b8060005b85811015614e735784840389528151614e548582614def565b9450614e5f83614e03565b925060208a01995050600181019050614e3b565b50829750879550505050505092915050565b60006020820190508181036000830152614e9f8184614e10565b905092915050565b614eb081614625565b8114614ebb57600080fd5b50565b600081359050614ecd81614ea7565b92915050565b60008060408385031215614eea57614ee9614596565b5b6000614ef8858286016148e4565b9250506020614f0985828601614ebe565b9150509250929050565b600067ffffffffffffffff821115614f2e57614f2d614a1e565b5b614f37826146aa565b9050602081019050919050565b6000614f57614f5284614f13565b614a7e565b905082815260208101848484011115614f7357614f72614a19565b5b614f7e848285614aca565b509392505050565b600082601f830112614f9b57614f9a614a14565b5b8135614fab848260208601614f44565b91505092915050565b60008060008060808587031215614fce57614fcd614596565b5b6000614fdc878288016148e4565b9450506020614fed878288016148e4565b9350506040614ffe87828801614737565b925050606085013567ffffffffffffffff81111561501f5761501e61459b565b5b61502b87828801614f86565b91505092959194509250565b6000806000606084860312156150505761504f614596565b5b600084013567ffffffffffffffff81111561506e5761506d61459b565b5b61507a86828701614b1b565b935050602061508b86828701614737565b925050604084013567ffffffffffffffff8111156150ac576150ab61459b565b5b6150b886828701614b1b565b9150509250925092565b6150cb816147e4565b81146150d657600080fd5b50565b6000813590506150e8816150c2565b92915050565b6000806040838503121561510557615104614596565b5b600061511385828601614737565b9250506020615124858286016150d9565b9150509250929050565b6000806040838503121561514557615144614596565b5b6000615153858286016148e4565b9250506020615164858286016148e4565b9150509250929050565b7f4e487b7100000000000000000000000000000000000000000000000000000000600052602260045260246000fd5b600060028204905060018216806151b557607f821691505b602082108114156151c9576151c861516e565b5b50919050565b7f4552433732313a20617070726f76616c20746f2063757272656e74206f776e6560008201527f7200000000000000000000000000000000000000000000000000000000000000602082015250565b600061522b602183614666565b9150615236826151cf565b604082019050919050565b6000602082019050818103600083015261525a8161521e565b9050919050565b7f4552433732313a20617070726f76652063616c6c6572206973206e6f7420746f60008201527f6b656e206f776e6572206f7220617070726f76656420666f7220616c6c000000602082015250565b60006152bd603d83614666565b91506152c882615261565b604082019050919050565b600060208201905081810360008301526152ec816152b0565b9050919050565b7f4552433732313a2063616c6c6572206973206e6f7420746f6b656e206f776e6560008201527f72206f7220617070726f76656400000000000000000000000000000000000000602082015250565b600061534f602d83614666565b915061535a826152f3565b604082019050919050565b6000602082019050818103600083015261537e81615342565b9050919050565b7f4552433732313a20696e76616c696420746f6b656e2049440000000000000000600082015250565b60006153bb601883614666565b91506153c682615385565b602082019050919050565b600060208201905081810360008301526153ea816153ae565b9050919050565b7f4552433732313a2061646472657373207a65726f206973206e6f74206120766160008201527f6c6964206f776e65720000000000000000000000000000000000000000000000602082015250565b600061544d602983614666565b9150615458826153f1565b604082019050919050565b6000602082019050818103600083015261547c81615440565b9050919050565b7f4e487b7100000000000000000000000000000000000000000000000000000000600052601160045260246000fd5b60006154bd82614716565b91506154c883614716565b9250827fffffffffffffffffffffffffffffffffffffffffffffffffffffffffffffffff038211156154fd576154fc615483565b5b828201905092915050565b600061551382614716565b9150600082141561552757615526615483565b5b600182039050919050565b600081905092915050565b60008190508160005260206000209050919050565b6000815461555f8161519d565b6155698186615532565b945060018216600081146155845760018114615595576155c8565b60ff198316865281860193506155c8565b61559e8561553d565b60005b838110156155c0578154818901526001820191506020810190506155a1565b838801955050505b50505092915050565b60006155dd8284615552565b915081905092915050565b60006155f382614716565b91506155fe83614716565b92508282101561561157615610615483565b5b828203905092915050565b7f4e487b7100000000000000000000000000000000000000000000000000000000600052603260045260246000fd5b600061565682614716565b91507fffffffffffffffffffffffffffffffffffffffffffffffffffffffffffffffff82141561568957615688615483565b5b600182019050919050565b600061569f8261465b565b6156a98185615532565b93506156b9818560208601614677565b80840191505092915050565b60006156d18285615694565b91506156dd8284615694565b91508190509392505050565b7f496e697469616c697a61626c653a20636f6e747261637420697320616c72656160008201527f647920696e697469616c697a6564000000000000000000000000000000000000602082015250565b6000615745602e83614666565b9150615750826156e9565b604082019050919050565b6000602082019050818103600083015261577481615738565b9050919050565b6000819050919050565b600060ff82169050919050565b6000819050919050565b60006157b76157b26157ad8461577b565b615792565b615785565b9050919050565b6157c78161579c565b82525050565b60006020820190506157e260008301846157be565b92915050565b7f4552433732313a207472616e736665722066726f6d20696e636f72726563742060008201527f6f776e6572000000000000000000000000000000000000000000000000000000602082015250565b6000615844602583614666565b915061584f826157e8565b604082019050919050565b6000602082019050818103600083015261587381615837565b9050919050565b7f4552433732313a207472616e7366657220746f20746865207a65726f2061646460008201527f7265737300000000000000000000000000000000000000000000000000000000602082015250565b60006158d6602483614666565b91506158e18261587a565b604082019050919050565b60006020820190508181036000830152615905816158c9565b9050919050565b60006159188284615694565b915081905092915050565b7f4552433732313a20617070726f766520746f2063616c6c657200000000000000600082015250565b6000615959601983614666565b915061596482615923565b602082019050919050565b600060208201905081810360008301526159888161594c565b9050919050565b7f4552433732313a207472616e7366657220746f206e6f6e20455243373231526560008201527f63656976657220696d706c656d656e7465720000000000000000000000000000602082015250565b60006159eb603283614666565b91506159f68261598f565b604082019050919050565b60006020820190508181036000830152615a1a816159de565b9050919050565b7f4552433732313a206d696e7420746f20746865207a65726f2061646472657373600082015250565b6000615a57602083614666565b9150615a6282615a21565b602082019050919050565b60006020820190508181036000830152615a8681615a4a565b9050919050565b7f4552433732313a20746f6b656e20616c7265616479206d696e74656400000000600082015250565b6000615ac3601c83614666565b9150615ace82615a8d565b602082019050919050565b60006020820190508181036000830152615af281615ab6565b9050919050565b7f45524337323155524953746f726167653a2055524920736574206f66206e6f6e60008201527f6578697374656e7420746f6b656e000000000000000000000000000000000000602082015250565b6000615b55602e83614666565b9150615b6082615af9565b604082019050919050565b60006020820190508181036000830152615b8481615b48565b9050919050565b7f496e697469616c697a61626c653a20636f6e7472616374206973206e6f74206960008201527f6e697469616c697a696e67000000000000000000000000000000000000000000602082015250565b6000615be7602b83614666565b9150615bf282615b8b565b604082019050919050565b60006020820190508181036000830152615c1681615bda565b9050919050565b600081519050919050565b600082825260208201905092915050565b6000615c4482615c1d565b615c4e8185615c28565b9350615c5e818560208601614677565b615c67816146aa565b840191505092915050565b6000608082019050615c8760008301876147ab565b615c9460208301866147ab565b615ca160408301856147d5565b8181036060830152615cb38184615c39565b905095945050505050565b600081519050615ccd816145cc565b92915050565b600060208284031215615ce957615ce8614596565b5b6000615cf784828501615cbe565b91505092915050565b7f4e487b7100000000000000000000000000000000000000000000000000000000600052601260045260246000fdfea2646970667358221220cf2f441c0b9d6f0a10111b7cd69cbe28ba9e7d7e48c4ba5c71b9f668e2bc6ee964736f6c63430008090033",
  "linkReferences": {},
  "deployedLinkReferences": {}
}